{
  "_format": "hh-sol-artifact-1",
  "contractName": "Marketplace",
  "sourceName": "contracts/Marketplace.sol",
  "abi": [
    {
      "inputs": [
        {
          "internalType": "uint256",
          "name": "_listingPrice",
          "type": "uint256"
        }
      ],
      "stateMutability": "nonpayable",
      "type": "constructor"
    },
    {
      "inputs": [
        {
          "internalType": "uint256",
          "name": "_itemId",
          "type": "uint256"
        }
      ],
      "name": "buyNft",
      "outputs": [],
      "stateMutability": "payable",
      "type": "function"
    },
    {
      "inputs": [
        {
          "internalType": "uint256",
          "name": "_itemId",
          "type": "uint256"
        },
        {
          "internalType": "uint256",
          "name": "_price",
          "type": "uint256"
        }
      ],
      "name": "changePrice",
      "outputs": [],
      "stateMutability": "nonpayable",
      "type": "function"
    },
    {
      "inputs": [
        {
          "internalType": "uint256",
          "name": "_itemId",
          "type": "uint256"
        }
      ],
      "name": "delistNft",
      "outputs": [],
      "stateMutability": "nonpayable",
      "type": "function"
    },
    {
      "inputs": [
        {
          "internalType": "uint256",
          "name": "_itemId",
          "type": "uint256"
        }
      ],
      "name": "isSold",
      "outputs": [
        {
          "internalType": "bool",
          "name": "",
          "type": "bool"
        }
      ],
      "stateMutability": "view",
      "type": "function"
    },
    {
      "inputs": [
        {
          "internalType": "uint256",
          "name": "",
          "type": "uint256"
        }
      ],
      "name": "items",
      "outputs": [
        {
          "internalType": "address",
          "name": "nftContract",
          "type": "address"
        },
        {
          "internalType": "uint256",
          "name": "tokenId",
          "type": "uint256"
        },
        {
          "internalType": "uint256",
          "name": "price",
          "type": "uint256"
        },
        {
          "internalType": "address payable",
          "name": "seller",
          "type": "address"
        },
        {
          "internalType": "bool",
          "name": "sold",
          "type": "bool"
        }
      ],
      "stateMutability": "view",
      "type": "function"
    },
    {
      "inputs": [
        {
          "internalType": "address",
          "name": "_nftAddress",
          "type": "address"
        },
        {
          "internalType": "uint256",
          "name": "_tokenId",
          "type": "uint256"
        },
        {
          "internalType": "uint256",
          "name": "_price",
          "type": "uint256"
        }
      ],
      "name": "listNft",
      "outputs": [
        {
          "internalType": "uint256",
          "name": "",
          "type": "uint256"
        }
      ],
      "stateMutability": "payable",
      "type": "function"
    },
    {
      "inputs": [],
      "name": "listingPrice",
      "outputs": [
        {
          "internalType": "uint256",
          "name": "",
          "type": "uint256"
        }
      ],
      "stateMutability": "view",
      "type": "function"
    },
    {
      "inputs": [
        {
          "internalType": "uint256",
          "name": "_itemId",
          "type": "uint256"
        }
      ],
      "name": "nftPrice",
      "outputs": [
        {
          "internalType": "uint256",
          "name": "",
          "type": "uint256"
        }
      ],
      "stateMutability": "view",
      "type": "function"
    }
  ],
  "bytecode": "0x608060405234801561001057600080fd5b50604051620011393803806200113983398181016040528101906100349190610084565b600160008190555080600181905550506100b1565b600080fd5b6000819050919050565b6100618161004e565b811461006c57600080fd5b50565b60008151905061007e81610058565b92915050565b60006020828403121561009a57610099610049565b5b60006100a88482850161006f565b91505092915050565b61107880620000c16000396000f3fe60806040526004361061007b5760003560e01c8063b3de019c1161004e578063b3de019c1461013f578063bfb231d214610168578063c78f19f9146101a9578063c922b17c146101d45761007b565b80630110a17614610080578063243adbdd146100bd5780634e791483146100d95780636de2991414610102575b600080fd5b34801561008c57600080fd5b506100a760048036038101906100a29190610b88565b610204565b6040516100b49190610bd0565b60405180910390f35b6100d760048036038101906100d29190610b88565b610240565b005b3480156100e557600080fd5b5061010060048036038101906100fb9190610b88565b610437565b005b34801561010e57600080fd5b5061012960048036038101906101249190610b88565b610679565b6040516101369190610bfa565b60405180910390f35b34801561014b57600080fd5b5061016660048036038101906101619190610c15565b6106a8565b005b34801561017457600080fd5b5061018f600480360381019061018a9190610b88565b6107c6565b6040516101a0959493929190610cb7565b60405180910390f35b3480156101b557600080fd5b506101be610859565b6040516101cb9190610bfa565b60405180910390f35b6101ee60048036038101906101e99190610d36565b61085f565b6040516101fb9190610bfa565b60405180910390f35b60006002828154811061021a57610219610d89565b5b906000526020600020906004020160030160149054906101000a900460ff169050919050565b610248610acf565b60006002828154811061025e5761025d610d89565b5b90600052602060002090600402019050600015158160030160149054906101000a900460ff161515146102c6576040517f08c379a00000000000000000000000000000000000000000000000000000000081526004016102bd90610e15565b60405180910390fd5b8060020154341461030c576040517f08c379a000000000000000000000000000000000000000000000000000000000815260040161030390610ea7565b60405180910390fd5b60018160030160146101000a81548160ff0219169083151502179055508060000160009054906101000a900473ffffffffffffffffffffffffffffffffffffffff1673ffffffffffffffffffffffffffffffffffffffff166323b872dd303384600101546040518463ffffffff1660e01b815260040161038e93929190610ec7565b600060405180830381600087803b1580156103a857600080fd5b505af11580156103bc573d6000803e3d6000fd5b505050508060030160009054906101000a900473ffffffffffffffffffffffffffffffffffffffff1673ffffffffffffffffffffffffffffffffffffffff166108fc349081150290604051600060405180830381858888f1935050505015801561042a573d6000803e3d6000fd5b5050610434610b1f565b50565b60006002828154811061044d5761044c610d89565b5b906000526020600020906004020190508060030160009054906101000a900473ffffffffffffffffffffffffffffffffffffffff1673ffffffffffffffffffffffffffffffffffffffff163373ffffffffffffffffffffffffffffffffffffffff16146104ef576040517f08c379a00000000000000000000000000000000000000000000000000000000081526004016104e690610f4a565b60405180910390fd5b600015158160030160149054906101000a900460ff16151514610547576040517f08c379a000000000000000000000000000000000000000000000000000000000815260040161053e90610e15565b60405180910390fd5b8060000160009054906101000a900473ffffffffffffffffffffffffffffffffffffffff1673ffffffffffffffffffffffffffffffffffffffff166323b872dd303384600101546040518463ffffffff1660e01b81526004016105ac93929190610ec7565b600060405180830381600087803b1580156105c657600080fd5b505af11580156105da573d6000803e3d6000fd5b50505050600282815481106105f2576105f1610d89565b5b9060005260206000209060040201600080820160006101000a81549073ffffffffffffffffffffffffffffffffffffffff0219169055600182016000905560028201600090556003820160006101000a81549073ffffffffffffffffffffffffffffffffffffffff02191690556003820160146101000a81549060ff021916905550505050565b60006002828154811061068f5761068e610d89565b5b9060005260206000209060040201600201549050919050565b6000600283815481106106be576106bd610d89565b5b906000526020600020906004020190508060030160009054906101000a900473ffffffffffffffffffffffffffffffffffffffff1673ffffffffffffffffffffffffffffffffffffffff163373ffffffffffffffffffffffffffffffffffffffff1614610760576040517f08c379a000000000000000000000000000000000000000000000000000000000815260040161075790610f4a565b60405180910390fd5b600015158160030160149054906101000a900460ff161515146107b8576040517f08c379a00000000000000000000000000000000000000000000000000000000081526004016107af90610e15565b60405180910390fd5b818160020181905550505050565b600281815481106107d657600080fd5b90600052602060002090600402016000915090508060000160009054906101000a900473ffffffffffffffffffffffffffffffffffffffff16908060010154908060020154908060030160009054906101000a900473ffffffffffffffffffffffffffffffffffffffff16908060030160149054906101000a900460ff16905085565b60015481565b6000610869610acf565b600082116108ac576040517f08c379a00000000000000000000000000000000000000000000000000000000081526004016108a390610fb6565b60405180910390fd5b60015434146108f0576040517f08c379a00000000000000000000000000000000000000000000000000000000081526004016108e790610ea7565b60405180910390fd5b6108fa6003610b29565b60006109066003610b3f565b90508473ffffffffffffffffffffffffffffffffffffffff166323b872dd3330876040518463ffffffff1660e01b815260040161094593929190610ec7565b600060405180830381600087803b15801561095f57600080fd5b505af1158015610973573d6000803e3d6000fd5b5050505060026040518060a001604052808773ffffffffffffffffffffffffffffffffffffffff1681526020018681526020018581526020013373ffffffffffffffffffffffffffffffffffffffff16815260200160001515815250908060018154018082558091505060019003906000526020600020906004020160009091909190915060008201518160000160006101000a81548173ffffffffffffffffffffffffffffffffffffffff021916908373ffffffffffffffffffffffffffffffffffffffff160217905550602082015181600101556040820151816002015560608201518160030160006101000a81548173ffffffffffffffffffffffffffffffffffffffff021916908373ffffffffffffffffffffffffffffffffffffffff16021790555060808201518160030160146101000a81548160ff021916908315150217905550505080915050610ac8610b1f565b9392505050565b60026000541415610b15576040517f08c379a0000000000000000000000000000000000000000000000000000000008152600401610b0c90611022565b60405180910390fd5b6002600081905550565b6001600081905550565b6001816000016000828254019250508190555050565b600081600001549050919050565b600080fd5b6000819050919050565b610b6581610b52565b8114610b7057600080fd5b50565b600081359050610b8281610b5c565b92915050565b600060208284031215610b9e57610b9d610b4d565b5b6000610bac84828501610b73565b91505092915050565b60008115159050919050565b610bca81610bb5565b82525050565b6000602082019050610be56000830184610bc1565b92915050565b610bf481610b52565b82525050565b6000602082019050610c0f6000830184610beb565b92915050565b60008060408385031215610c2c57610c2b610b4d565b5b6000610c3a85828601610b73565b9250506020610c4b85828601610b73565b9150509250929050565b600073ffffffffffffffffffffffffffffffffffffffff82169050919050565b6000610c8082610c55565b9050919050565b610c9081610c75565b82525050565b6000610ca182610c55565b9050919050565b610cb181610c96565b82525050565b600060a082019050610ccc6000830188610c87565b610cd96020830187610beb565b610ce66040830186610beb565b610cf36060830185610ca8565b610d006080830184610bc1565b9695505050505050565b610d1381610c75565b8114610d1e57600080fd5b50565b600081359050610d3081610d0a565b92915050565b600080600060608486031215610d4f57610d4e610b4d565b5b6000610d5d86828701610d21565b9350506020610d6e86828701610b73565b9250506040610d7f86828701610b73565b9150509250925092565b7f4e487b7100000000000000000000000000000000000000000000000000000000600052603260045260246000fd5b600082825260208201905092915050565b7f4974656d20697320616c726561647920736f6c64000000000000000000000000600082015250565b6000610dff601483610db8565b9150610e0a82610dc9565b602082019050919050565b60006020820190508181036000830152610e2e81610df2565b9050919050565b7f5072696365206d75737420626520657175616c20746f206c697374696e67207060008201527f7269636500000000000000000000000000000000000000000000000000000000602082015250565b6000610e91602483610db8565b9150610e9c82610e35565b604082019050919050565b60006020820190508181036000830152610ec081610e84565b9050919050565b6000606082019050610edc6000830186610c87565b610ee96020830185610c87565b610ef66040830184610beb565b949350505050565b7f596f7520617265206e6f74207468652073656c6c657200000000000000000000600082015250565b6000610f34601683610db8565b9150610f3f82610efe565b602082019050919050565b60006020820190508181036000830152610f6381610f27565b9050919050565b7f5072696365206d757374206265206174206c6561737420312077656900000000600082015250565b6000610fa0601c83610db8565b9150610fab82610f6a565b602082019050919050565b60006020820190508181036000830152610fcf81610f93565b9050919050565b7f5265656e7472616e637947756172643a207265656e7472616e742063616c6c00600082015250565b600061100c601f83610db8565b915061101782610fd6565b602082019050919050565b6000602082019050818103600083015261103b81610fff565b905091905056fea264697066735822122010dfa3a012ee89b0e2808e248b53b96706e33f2a4ab35c3b454cc85bad24936964736f6c634300080c0033",
  "linkReferences": {},
  "deployedLinkReferences": {}
}